:020000040800F2
:1000000000000220F5020008FD02000801030008BC
:10001000190300081D030008350300080000000054
:100020000000000000000000000000004D03000878
:10003000510300080000000055030008C933000800
:1000400069030008690300086903000869030008E0
:1000500069030008690300086903000869030008D0
:1000600069030008690300086903000869030008C0
:1000700069030008690300086903000869030008B0
:1000800069030008690300086903000869030008A0
:100090006903000869030008690300086903000890
:1000A0006903000869030008690300086903000880
:1000B0006903000869030008690300086903000870
:1000C0006903000869030008690300086903000860
:1000D0006903000869030008690300086903000850
:1000E0006903000869030008690300086903000840
:1000F0006903000869030008690300086903000830
:10010000690300086903000869030008690300081F
:10011000690300086903000849230008DD2C000872
:1001200069030008690300086903000869030008FF
:1001300069030008000000000000000069030008D7
:1001400069030008690300086903000869030008DF
:1001500069030008690300086903000869030008CF
:1001600069030008690300086903000869030008BF
:100170006903000869030008690300080000000023
:1001800000000000690300080000000000000000FB
:100190006903000800000000000000006903000877
:1001A00000000000000000000000000069030008DB
:1001B000690300086903000869030008690300086F
:1001C0006903000800B583B002F028FB384B394AB8
:1001D0001360394A136039490CE00A684B6801F131
:1001E0000C04886803E011681960043304329842F3
:1001F000F9D82146324B9942EFD32E4B1A68314B36
:100200009A4204D12C4B1A682F4B9A4200D0FEE739
:10021000274B2E4A13602E4A13602E4B0AE01946D4
:1002200051F8082B5B6802E00020106004329A420B
:10023000FAD30B46284A9342F1D3244B1B6813B9D7
:10024000234B1B6803B1FEE702F0C2FC694601A81C
:1002500002F0DCFA214C224B1C1BA410002504E008
:100260001E4B53F8253098470135AC42F8DC1D4C45
:100270001D4B1C1BA410002504E01A4B53F825301D
:1002800098470135AC42F8DC0099019802F0BEFEB7
:100290000546164C164B1C1BA41004E0013C134BE6
:1002A00053F824309847002CF8DC284602F0ACFACA
:1002B000BABADECA00000020100000206C0300085B
:1002C00084030008785634123254769814000020C3
:1002D0006C020020840300089403000894030008C3
:1002E0009403000894030008940300089403000892
:1002F0009403000808B5FFF765FF00BF00BEFEE7E6
:100300001EF0040F0CBFEFF30880EFF30980714675
:10031000124A104700BEFEE700BEFEE71EF0040FC3
:100320000CBFEFF30880EFF3098071460C4A1047C9
:1003300000BEFEE71EF0040F0CBFEFF30880EFF3E2
:1003400009807146074A104700BEFEE700BEFEE77F
:1003500000BEFEE700BEFEE7704700001503000880
:0C036000310300084903000800BEFEE75E
:10036C00A03600080000002014000020A036000871
:10037C00000000100000001014000020700200208B
:08038C00000000100000001049
:1003940008B50B4B1A6842F400721A601A6842F4EA
:1003A40080621A601A6842F480721A60032000F0B6
:1003B4009FFA002001F07EFF02F0E4FE002008BD59
:1003C400003C0240024A136801331360704700BFC7
:1003D4001C000020014B1868704700BF1C0000205F
:1003E40010B582B00190FFF7F5FF0446FFF7F2FF66
:1003F400001B019B9842F9D302B010BD10B504460E
:10040400504B5A6822F440325A60596842680A4391
:100414005A600268536823F4807353600268536817
:10042400016943EA012353600268536823F040736F
:1004340053600268516883680B4353600268936891
:1004440023F40063936002689168C3680B4393606C
:10045400826A3D4B9A4214D00268936823F0706319
:10046400936002689168836A0B439360026893689F
:1004740023F04053936002689168C36A0B4393600E
:1004840009E00268936823F07063936002689368DC
:1004940023F0405393602268936823F0020393602F
:1004A40022689368A16943EA41039360236A03B312
:1004B400636A013B072B04D940F20A61234802F026
:1004C4005FFE2268536843F40063536022685368F4
:1004D40023F460435360636A013B4FF4604292FA31
:1004E400A2F2B2FA82F2934021684A6813434B6045
:1004F40004E02268536823F4006353602268D36ADB
:1005040023F47003D3622168CA6AE369013B42EAB7
:100514000353CB622268936823F4007393602268C8
:100524009368216B43EA412393602268936823F420
:100534008063936022689368616943EA81239360CE
:1005440010BD00BF002301400100000FB4340008B7
:10055400002800F0DE8010B5044603686E4A93421A
:100564000CD002F58072934208D002F58072934257
:1005740004D040F20D11694802F002FE63686BB1C9
:10058400B3F5803F0AD0B3F5003F07D0B3F5403F41
:1005940004D04FF48771614802F0F2FDA3686BB197
:1005A400B3F1807F0AD0B3F1007F07D0B3F1407F6D
:1005B40004D040F20F11594802F0E2FD2369012BE7
:1005C40004D94FF48871554802F0DAFDA369012B70
:1005D40004D940F21111514802F0D2FDA36AA3B329
:1005E400B3F1807F31D0B3F1007F2ED0B3F1407FDF
:1005F4002BD0B3F1806F28D0B3F1A06F25D0B3F125
:10060400C06F22D0B3F1E06F1FD0B3F1006F1CD0E4
:10061400B3F1106F19D0B3F1206F16D0B3F1306F6E
:1006240013D0B3F1406F10D0B3F1506F0DD0B3F1CC
:10063400606F0AD0B3F1706F07D0394A934204D087
:100644004FF48971354802F09BFDE3683BB1B3F583
:10065400006F04D040F21311304802F091FDE369B9
:10066400013B0F2B04D94FF48A712C4802F088FD0A
:10067400236B012B04D940F21511284802F080FDA8
:100684006369022B04D94FF48B71244802F078FD7E
:10069400236A012B04D940F21711204802F070FD9F
:1006A400A26A1F4B9A420FD0E36A6BB1B3F1805F29
:1006B4000AD0B3F1005F07D0B3F1405F04D040F239
:1006C4001B11164802F05CFD236C2BB9636484F89B
:1006D4003C30204602F086FD236C13F0100F13D13A
:1006E400236C23F4885323F0020343F002032364AE
:1006F4002046FFF783FE00206064236C23F003038D
:1007040043F00103236400E00120002384F83C301B
:1007140010BD0120704700BF00200140B434000820
:100724000100000F30B583B005460C460023019349
:100734000B68122B07D9684A934204D040F2045143
:10074400664802F01DFD6368013B0F2B04D940F29B
:100754000551624802F014FDA368072B04D940F246
:1007640006515E4802F00CFD95F83C30012B00F078
:10077400AF80012385F83C302368092B17D92868FA
:10078400C2689BB203EB43031E3B072101FA03F348
:1007940022EA0303C3602968C868A268238803EBBC
:1007A40043031E3B02FA03F30343CB6013E02868C0
:1007B40002699BB203EB4303072101FA03F322EA24
:1007C4000303036129680869A368228802EB4202D3
:1007D400934003430B616368062B16D82868426B69
:1007E40003EB8303053B1F2101FA03F322EA03030E
:1007F40043632968486B2288636803EB8303053BE2
:1008040002FA03F303434B632EE00C2B16D828683B
:10081400026B03EB8303233B1F2101FA03F322EA58
:10082400030303632968086B2288636803EB83036B
:10083400233B02FA03F303430B6315E02868C26AFF
:1008440003EB8303413B1F2101FA03F322EA030371
:10085400C3622968C86A2288636803EB8303413B47
:1008640002FA03F30343CB622A681D4B9A4207D171
:100874002368122B04D11B4A536843F4800353604A
:100884002A68174B9A421FD12368134A934201D016
:10089400112B19D1134A536843F40003536022689F
:1008A4000D4B9A4210D1104B1B68104AA2FB032334
:1008B4009B0C03EB83035A00019202E0019B013B72
:1008C4000193019B002BF9D1002085F83C0000E046
:1008D400022003B030BD00BF12000010B434000881
:1008E40000200140002301400C00002083DE1B4354
:1008F40010B50446C31E042B03D9A421094802F0F1
:100904003FFC094AD36823F4E0631B041B0C240254
:1009140004F4E064234343F0BF6343F40033D3603F
:1009240010BD00BFE434000800ED00E070B50446DB
:100934000E4615460F2A03D9BC211A4802F020FCA2
:100944000F2E03D9BD21174802F01AFC164BDA68A2
:10095400C2F30222C2F10701042928BF0421131D96
:10096400062B01D9033A00E00022012303FA01F126
:1009740001393140914003FA02F2013A2A400A4314
:10098400002C06DA04F00F041201D2B2074B1A55F8
:1009940070BD1201D2B204F1604404F5614484F8DC
:1009A400002370BDE434000800ED00E014ED00E025
:1009B40010B5041E03DAD021064802F0E1FB6209F7
:1009C40004F01F04012303FA04F4034B43F8224008
:1009D40010BD00BFE434000800E100E00138B0F1CC
:1009E400807F0AD2064B5860F021064A82F8231011
:1009F4000020986007221A6070470120704700BFEA
:100A040010E000E000ED00E010B50446042805D035
:100A140020B140F2B311084802F0B2FB042C05D116
:100A2400064A136843F00403136010BD034A1368B5
:100A340023F00403136010BDE434000810E000E068
:100A4400704700BF08B5FFF7FBFF08BD2DE9F0476D
:100A540082B080460F46AB4B98421FD003F58063AB
:100A640098421BD003F58063984217D003F5806346
:100A7400984213D003F5806398420FD003F5806346
:100A840098420BD003F58063984207D003F5806346
:100A9400984203D0C5219C4802F072FB3B881BB9E5
:100AA400C621994802F06CFB7B68012B22D9112BDB
:100AB40020D0022B1ED0122B1CD0944A934219D062
:100AC40002F58012934215D002F58012934211D0A0
:100AD400A2F5F81293420DD002F58012934209D088
:100AE40002F58012934205D0032B03D0C721864818
:100AF40002F046FBBB68022B03D9C821824802F0EE
:100B04003FFB00253EE10124AC403E682640B44250
:100B140040F037817B68022B01D0122B69D13B69ED
:100B2400002B56D0092B54D0002B52D0002B50D080
:100B3400002B4ED0002B4CD0012B4AD049D0022B95
:100B440047D046D045D0032B43D0042B41D040D0CE
:100B54003FD0052B3DD03CD0092B3AD0062B38D0C2
:100B6400092B36D0072B34D033D032D0082B30D0D9
:100B74002FD02ED0092B2CD02BD00A2B29D028D023
:100B84000B2B26D00C2B24D023D00D2B21D00F2BB4
:100B94001FD0052B1DD00C2B1BD0062B19D0032BDB
:100BA40017D0042B15D0052B13D0062B11D010D041
:100BB400072B0ED00DD00CD00BD0082B09D008D0A9
:100BC400092B06D00A2B04D003D0D9214E4802F0B9
:100BD400D7FAEA08083258F8220005F0070399000A
:100BE4000F238B4020EA03003B698B40034348F802
:100BF4002230D8F800304FEA450A4FF0030909FAC9
:100C04000AF96FEA090903EA09027B6803F003039E
:100C140003FA0AF31343C8F800307B685A1E012A0A
:100C240003D9112B01D0122B1BD1FB68032B03D941
:100C3400EC21354802F0A4FAD8F8083009EA030296
:100C4400FB6803FA0AF31343C8F80830D8F80430F1
:100C540023EA04047B68C3F30013AB401C43C8F8C5
:100C64000440D8F80C3009EA0309BB6803FA0AF314
:100C740049EA0303C8F80C307B6813F0805F00F086
:100C8400808000230193224B5A6C42F480425A64C0
:100C94005B6C03F480430193019BA9088A1C1D4BE0
:100CA40053F8220005F003039B000F229A4020EA28
:100CB4000200144A904519D002F58062904517D07D
:100CC40002F58062904515D002F58062904513D0FC
:100CD40002F58062904511D002F5806290450FD0F4
:100CE40002F58062904517D1062216E0002214E036
:100CF400012212E0022210E003220EE004220CE0A2
:100D040005220AE000000240183500080000111016
:100D14000038024000380140082202FA03F303437A
:100D240002311B4A42F821301A4B1A68F34302EA93
:100D34000301786810F4803F01D046EA0201154AA5
:100D44001160526803EA0201786810F4003F01D090
:100D540046EA02010F4A5160926803EA0201786888
:100D640010F4801F01D046EA02010A4A9160D26859
:100D74001340796811F4001F01D046EA0203054AC2
:100D8400D36001350F2D7FF6BEAE02B0BDE8F0870B
:100D940000380140003C014070B5064615460C463B
:100DA40021B940F2B111084802F0EAF9012D04D941
:100DB4004FF4D971044802F0E3F90DB1B46170BD88
:100DC4002404B46170BD00BF1835000810B582B0AA
:100DD40000230193244B1A6C42F080521A641B6C5A
:100DE40003F080530193019B4FF4803393FAA3F3F0
:100DF400B3FA83F303F1845303F560339B000122B8
:100E04001A60FFF7E7FA044605E0FFF7E3FA001B70
:100E1400B0F57A7F22D8154B5B6813F4803FF4D089
:100E24004FF4003393FAA3F3B3FA83F303F1845337
:100E340003F560339B0001221A60FFF7CBFA0446E6
:100E440005E0FFF7C7FA001BB0F57A7F08D8074B17
:100E54005B6813F4003FF4D0002002E0032000E0BC
:100E6400032002B010BD00BF0038024000700040F3
:100E740070B504460D460368013B0E2B04D940F2BD
:100E840037218F4802F07CF90F2D04D94FF40E71ED
:100E94008B4802F075F98B4B1B6803F00F039D42DE
:100EA40008D9EBB2874A1370136803F00F039D420D
:100EB40040F0F480236813F0020F1DD0A368A3B19F
:100EC400802B12D0902B10D0A02B0ED0B02B0CD096
:100ED400C02B0AD0D02B08D0E02B06D0F02B04D0A6
:100EE40040F24F21764802F04BF977498B6823F0A2
:100EF400F002A36813438B60236813F0010F6BD0D7
:100F04006368032B04D940F256216D4802F038F986
:100F14006268012A05D16C4B1B6813F4003F0FD1A2
:100F2400BEE0931E012B05D8674B1B6813F0007FAE
:100F340006D1B7E0644B1B6813F0020F00F0B480D5
:100F440061498B6823F0030313438B60FFF742FA74
:100F540006466368012B0FD107E0FFF73BFA801BBD
:100F640041F28833984200F2A180574B9B6803F00A
:100F74000C03042BF1D12FE0022B0FD107E0FFF774
:100F840029FA801B41F28833984200F291804E4B3B
:100F94009B6803F00C03082BF1D11DE0032B16D141
:100FA40007E0FFF717FA801B41F28833984200F2FA
:100FB4008180454B9B6803F00C030C2BF1D10BE0B3
:100FC400FFF708FA801B41F28833984274D83E4BED
:100FD4009B6813F00C0FF3D13A4B1B6803F00F031B
:100FE4009D4207D2EAB2374B1A701B6803F00F0315
:100FF4009D4263D1236813F0040F19D0E36883B1D1
:10100400B3F5805F0DD0B3F5A05F0AD0B3F5C05F30
:1010140007D0B3F5E05F04D04FF42D71284802F0F7
:10102400AFF829498B6823F4E052E36813438B60DB
:10103400236813F0080F1AD0236983B1B3F5805FD6
:101044000DD0B3F5A05F0AD0B3F5C05F07D0B3F5F8
:10105400E05F04D040F2BB21194802F091F81A4A2B
:10106400936823F46043216943EAC103936000F069
:10107400D5FA154B9B6803F0F002F02393FAA3F31F
:10108400B3FA83F322FA03F3104AD35CD840104B2B
:101094001860002001F00EF9002070BD012070BD21
:1010A400012070BD012070BD012070BD032070BD02
:1010B400032070BD032070BD032070BD012070BDEE
:1010C40058350008003C024000380240483500080A
:1010D4000C000020014B1868704700BF0C00002072
:1010E40008B5FFF7F7FF084B9B6803F4E0524FF491
:1010F400E05393FAA3F3B3FA83F322FA03F3034A14
:10110400D35CD84008BD00BF003802404835000811
:1011140008B5FFF7DFFF084B9B6803F460424FF408
:10112400604393FAA3F3B3FA83F322FA03F3034A73
:10113400D35CD84008BD00BF0038024048350008E1
:101144000F2303600B4B9A6802F0030242609A6813
:1011540002F0F00282609A6802F4E052C2609B6876
:10116400DB0803F4E0530361034B1B6803F00F0334
:101174000B60704700380240003C024030B583B039
:10118400044603680F2B04D940F60F01A74801F069
:10119400F7FF236813F0010F51D06368012B06D9C0
:1011A400052B04D040F61401A04801F0E9FFA04B40
:1011B4009B6803F00C03042B15D09D4B9B6803F034
:1011C4000C03082B04D19A4B5B6813F4800F0AD1EB
:1011D400974B9B6803F00C030C2B0CD1944B5B686E
:1011E40013F4800F07D0924B1B6813F4003F26D0F2
:1011F400636823BBEAE122798E4B1A7063687BB182
:10120400FFF7E8F8054605E0FFF7E4F8401B64281B
:1012140000F2DE81864B1B6813F4003FF4D00EE02D
:10122400FFF7D8F8054605E0FFF7D4F8401B64281B
:1012340000F2D0817E4B1B6813F4003FF4D1236885
:1012440013F0020F75D0E368012B04D940F64C016A
:10125400764801F095FF23691F2B04D940F64D0110
:10126400724801F08DFF724B9B6813F00C0F15D080
:101274006F4B9B6803F00C03082B04D16C4B5B6829
:1012840013F4800F0AD06A4B9B6803F00C030C2BF9
:101294001BD1674B5B6813F4800F16D1644B1B683A
:1012A40013F0020F03D0E368012B40F095816048EE
:1012B400036823F0F8012369F82292FAA2F2B2FA41
:1012C40082F293400B43036033E0E368FBB10122F5
:1012D400594B1A60FFF77EF8054605E0FFF77AF8E8
:1012E400401B022800F27A81514B1B6813F0020F55
:1012F400F4D04F48036823F0F8012369F82292FAE6
:10130400A2F2B2FA82F293400B43036011E000228E
:10131400494B1A60FFF75EF8054605E0FFF75AF8F7
:10132400401B022800F25C81414B1B6813F0020F42
:10133400F4D1236813F0080F2ED06369012B04D96C
:1013440040F69301394801F01BFF636993B1012210
:101354003A4B1A60FFF73EF8054605E0FFF73AF806
:10136400401B022800F23E81314B5B6F13F0020FE9
:10137400F4D011E00022314B1A60FFF72BF8054638
:1013840005E0FFF727F8401B022800F22D81284BC7
:101394005B6F13F0020FF4D1236813F0040F60D0D5
:1013A400A368012B06D9052B04D040F6BD011F48C4
:1013B40001F0E6FE002301931D4B1A6C42F08052AB
:1013C4001A641B6C03F080530193019B1C4A13683D
:1013D40043F480731360FEF7FDFF054605E0FEF756
:1013E400F9FF401B022800F20181154B1B6813F41E
:1013F400807FF4D0227A134B1A70A3688BB1FEF766
:10140400E9FF054607E0FEF7E5FF401B41F288339C
:10141400984200F2ED80064B1B6F13F0020FF2D0DE
:101424001FE0FEF7D7FF054616E000BF8835000829
:10143400003802400238024000004742800E474212
:101444000070004070380240FEF7C4FF401B41F2B8
:101454008833984200F2CE806D4B1B6F13F0020F5D
:10146400F2D1A369022B04D940F6F201694801F0D4
:1014740087FEA369002B00F0BF80654A926802F0E2
:101484000C02082A00F0BA80022B40F08C80E36939
:101494003BB1B3F5800F04D040F6FB015D4801F089
:1014A4006FFE236A3F2B04D940F6FC01594801F032
:1014B40067FE636A323BB3F5BF7F04D940F6FD0192
:1014C400544801F05DFEA36A022B0AD0042B08D015
:1014D400062B06D0082B04D040F6FE014D4801F03F
:1014E4004FFEE36A043B0B2B04D940F6FF01494845
:1014F40001F046FE236B023B052B04D94FF4106127
:10150400444801F03DFE0022434B1A60FEF762FF9F
:10151400054604E0FEF75EFF401B022870D83C4BF2
:101524001B6813F0007FF5D1E169236A1943636AEC
:1015340047F6C07292FAA2F2B2FA82F293401943C9
:10154400A36A5B085A1E4FF4403393FAA3F3B3FA29
:1015540083F302FA03F30B43E26A4FF0706191FAEA
:10156400A1F1B1FA81F18A401343226B4FF0E041BB
:1015740091FAA1F1B1FA81F18A401343244A5360EC
:101584000122254B1A60FEF725FF044604E0FEF70E
:1015940021FF001B022835D81D4B1B6813F0007F68
:1015A400F5D0002031E000221B4B1A60FEF712FF39
:1015B400044604E0FEF70EFF001B022824D8144B57
:1015C4001B6813F0007FF5D100201EE001201CE011
:1015D40003201AE0032018E0012016E0032014E0A1
:1015E400032012E0032010E003200EE003200CE0AF
:1015F40003200AE0032008E0002006E0012004E0C4
:10160400032002E0032000E0032003B030BD00BF4C
:1016140000380240883500086000474210B4414B4E
:101624009B6803F00C03082B05D00C2B3ED0042B35
:1016340075D03D4874E03B4A536803F03F03526859
:1016440012F4800F10D03948B0FBF3F0354B5A68D0
:1016540047F6C0710A4091FAA1F1B1FA81F122FA78
:1016640001F303FB00F310E02F48B0FBF3F32D4A22
:10167400526847F6C07402EA040194FAA4F2B2FA7A
:1016840082F221FA02F202FB03F3264A506800F4C4
:1016940040324FF4403090FAA0F0B0FA80F022FAD1
:1016A40000F001304000B3FBF0F039E01D4A53680C
:1016B40003F03F03526812F4800F10D01B48B0FBB4
:1016C400F3F0184B5A6847F6C0710A4091FAA1F139
:1016D400B1FA81F122FA01F303FB00F310E012489E
:1016E400B0FBF3F30F4A526847F6C07402EA0401F0
:1016F40094FAA4F2B2FA82F221FA02F202FB03F3A0
:10170400084A506800F0E0424FF0E04090FAA0F040
:10171400B0FA80F022FA00F0B3FBF0F000E00348E6
:1017240010BC7047003802400024F40000127A0014
:10173400F8B505460F4616461C4636E0B4F1FF3FA1
:1017440033D02CB1FEF746FE069BC01A84422CD837
:101754002A68536823F0E00353606B68B3F5827F13
:101764000BD1AB68B3F5004F02D0B3F5806F04D151
:101774002A68136823F040031360AB6AB3F5005F73
:101784000BD12A68136823F400531B041B0C136049
:101794002A68136843F400531360012385F8513019
:1017A400002385F850300320F8BD2B689B6837EA86
:1017B400030301D1012300E00023B342BED1002082
:1017C400F8BD00BF10B582B0044600920B4600225B
:1017D4008021FFF7ADFF034620B1636D43F0200382
:1017E40063650323184602B010BD00BF002800F053
:1017F400BB8010B5044603685C4A934210D0A2F53E
:10180400784293420CD002F58062934208D002F5EC
:101814007842934204D040F20B11554801F0B0FCD9
:1018240063683BB1B3F5827F04D04FF486715048AE
:1018340001F0A6FCA36853B1B3F5806F07D0B3F5EC
:10184400004F04D040F20D11494801F099FCE368BF
:10185400B3F5006F05D023B14FF48771444801F00C
:101864008FFCA369B3F5007F08D03BB1B3F5802F9B
:1018740004D040F20F113E4801F082FCE36993B1B9
:10188400082B10D0102B0ED0182B0CD0202B0AD0E4
:10189400282B08D0302B06D0382B04D04FF4887175
:1018A400334801F06DFC236A33B1802B04D040F23D
:1018B40011112F4801F064FC636A33B1102B04D07A
:1018C4004FF489712A4801F05BFC636A83B9236988
:1018D40033B1022B04D040F21511254801F050FC1D
:1018E4006369012B04D94FF48B71214801F048FC42
:1018F4000023A36294F8513013F0FF0F05D10023A5
:1019040084F85030204601F091FC022384F85130D1
:101914002268136823F04003136021686268A36897
:101924001A43E3681A4323691A4363691A43A36990
:1019340003F400731343E2691343226A1343A26A54
:101944001A430A602168638B03F00402636A134339
:101954004B602268D36923F40063D361002060657F
:10196400012384F8513010BD01207047003001403C
:10197400BC3500082DE9F04184B004460E4690467B
:101984001D4683683BB1B3F5004F04D04FF4E171B9
:10199400694801F0F5FB94F85030012B00F0C88041
:1019A400012384F85030FEF715FD074694F85130B2
:1019B400DBB2012B40F0A480002E00F0A380B8F12C
:1019C400000F00F0A180032384F8513000236365E5
:1019D4002663A4F83480A4F83680A363A387E3873E
:1019E40063642364A368B3F5004F04D122681368C9
:1019F40043F48043136023681A6812F0400F03D144
:101A04001A6842F040021A60E368B3F5006F2CD103
:101A140063681BB1E38E9BB2012B21D1236836F896
:101A2400022BDA60E38E9BB2013B9BB2E38617E0A4
:101A340023689A6812F0020F08D036F8022BDA6095
:101A4400E38E9BB2013B9BB2E38609E0002D5DD09F
:101A5400B5F1FF3F04D0FEF7BDFCC01B854257D94A
:101A6400E38E9BB2002BE3D12BE063681BB1E38EC2
:101A74009BB2012B21D1236816F8012B1A73E38E34
:101A84009BB2013B9BB2E38617E023689A6812F08D
:101A9400020F08D016F8012B1A73E38E9BB2013B98
:101AA4009BB2E38609E0002D34D0B5F1FF3F04D0AA
:101AB400FEF790FCC01B85422ED9E38E9BB2002B0F
:101AC400E3D100972B46012202212046FFF730FE86
:101AD40020BB3A4629462046FFF774FE18B120235E
:101AE400636501201DE0A36833B903932368DA68B2
:101AF40003929B680393039B636D8BB9002010E0F2
:101B040002200EE001200CE001200AE0032008E09E
:101B1400032006E0032004E0032002E0032000E0A9
:101B24000120012384F85130002384F8503000E070
:101B3400022004B0BDE8F081BC3500082DE9F04373
:101B440085B004460F46164698460C9D836823B11B
:101B540040F236318E4801F013FB94F85030012BDB
:101B640000F01181012384F85030FEF733FC8146E4
:101B740094F85130DBB26268012B0AD0B2F5827F4F
:101B840040F0E780A268002A40F0E580042B40F092
:101B9400E480002F00F0E380002E00F0E280B8F132
:101BA400000F00F0E08094F85130DBB2012B02D139
:101BB400052384F8513000236365A663A4F83E80AE
:101BC400A4F83C802763A4F83680A4F83480236406
:101BD400636423681A6812F0400F03D11A6842F054
:101BE40040021A60E368B3F5006F4AD163681BB121
:101BF400E38E9BB2012B08D1236837F8022BDA60FD
:101C0400E38E9BB2013B9BB2E3864FF001082FE0C9
:101C1400B8F1000F11D0E38E9BB273B123689A68B8
:101C240012F0020F09D037F8022BDA60E38E9BB270
:101C3400013B9BB2E3864FF00008E38F9BB273B184
:101C440023689A6812F0010F09D0DB6826F8023B7A
:101C5400E38F9BB2013B9BB2E3874FF00108B5F1E0
:101C6400FF3F05D0FEF7B6FBC9EB000085427CD9E7
:101C7400E38E9BB2002BCBD1E38F9BB2002BC7D159
:101C840049E063681BB1E38E9BB2012B08D1236842
:101C940017F8012B1A73E38E9BB2013B9BB2E386C8
:101CA4004FF001082FE0B8F1000F11D0E38E9BB282
:101CB40073B123689A6812F0020F09D03A781A7344
:101CC400E38E9BB2013B9BB2E38601374FF00008E1
:101CD400E38F9BB273B123689A6812F0010F09D0A5
:101CE400DB683370E38F9BB2013B9BB2E387013621
:101CF4004FF00108B5F1FF3F05D0FEF76BFBC9EBD0
:101D04000000854233D9E38E9BB2002BCBD1E38F05
:101D14009BB2002BC7D1CDF800902B4601220221A3
:101D24002046FFF705FD20BB4A4629462046FFF71B
:101D340049FD18B12023636501201DE0A368D3B9D0
:101D4400002003902368DA6803929B680393039B43
:101D540012E0022010E002200EE002200CE001203C
:101D64000AE0012008E0012006E0032004E003204B
:101D740002E0032000E00020012384F85130002316
:101D840084F8503000E0022005B0BDE8F08300BFC5
:101D9400BC35000810B504460368234A934237D083
:101DA400B3F1804F34D0A2F57C42934230D002F597
:101DB400806293422CD002F58062934228D002F5CF
:101DC4008062934224D002F58062934220D002F5CF
:101DD400704293421CD002F57052934218D002F51F
:101DE4008062934214D002F58062934210D0A2F52F
:101DF400983293420CD002F58062934208D002F5E7
:101E04008062934204D04FF4B271084801F0B8F9EB
:101E14002268D36843F00103D3602268136843F057
:101E240001031360002010BD00000140EC350008E0
:101E3400704700BF704700BF704700BF704700BFC6
:101E440010B5044603681A6912F0020F17D0DA6855
:101E540012F0020F13D06FF002021A61012303760D
:101E640003689B6913F0030F02D0FFF7E3FF04E05C
:101E7400FFF7DEFF2046FFF7DFFF0023237623680A
:101E84001A6912F0040F19D0DA6812F0040F15D091
:101E94006FF004021A610223237623689B6913F40A
:101EA400407F03D02046FFF7C5FF05E02046FFF73B
:101EB400BFFF2046FFF7C0FF0023237623681A697B
:101EC40012F0080F19D0DA6812F0080F15D06FF06D
:101ED40008021A61042323762368DB6913F0030FD5
:101EE40003D02046FFF7A6FF05E02046FFF7A0FF3A
:101EF4002046FFF7A1FF0023237623681A6912F016
:101F0400100F19D0DA6812F0100F15D06FF010020C
:101F14001A61082323762368DB6913F4407F03D016
:101F24002046FFF787FF05E02046FFF781FF2046A4
:101F3400FFF782FF0023237623681A6912F0010F4A
:101F440009D0DA6812F0010F05D06FF001021A61AE
:101F5400204600F0F3F923681A6912F0800F09D0C3
:101F6400DA6812F0800F05D06FF080021A61204603
:101F740000F09EF923681A6912F0400F09D0DA685C
:101F840012F0400F05D06FF040021A612046FFF7AF
:101F940055FF23681A6912F0200F09D0DA6812F08D
:101FA400200F05D06FF020021A61204600F07EF960
:101FB40010BD00BF0368454A904214D0B0F1804F71
:101FC40013D0A2F57C42904211D002F58062904277
:101FD4000FD002F5806290420DD002F57842904213
:101FE4000BD101220AE0012208E0012206E00122CD
:101FF40004E0012202E0012200E000221AB123F0F1
:1020040070034A681343314A90422CD0B0F1804F98
:102014002BD0A2F57C42904229D002F580629042F6
:1020240027D002F58062904225D002F57842904292
:1020340023D002F57052904221D002F58062904282
:102044001FD002F5806290421DD0A2F598329042D2
:102054001BD002F58062904219D002F58062904252
:1020640017D1012216E0012214E0012212E001221C
:1020740010E001220EE001220CE001220AE001221C
:1020840008E0012206E0012204E0012202E001222C
:1020940000E000221AB123F44073CA6813430360BA
:1020A4008B68C3620B688362084B984205D003F5C2
:1020B4008063984203D1012302E0012300E000235E
:1020C4000BB10B69036301234361704700000140B6
:1020D40000286DD010B504460368364A934236D0C2
:1020E400B3F1804F33D0A2F57C4293422FD002F556
:1020F400806293422BD002F58062934227D002F58E
:102104008062934223D002F5806293421FD002F58D
:10211400704293421BD002F57052934217D002F5DD
:102124008062934213D002F5806293420FD0A2F5ED
:10213400983293420BD002F58062934207D002F5A5
:102144008062934203D0D9211B4801F019F8A36897
:102154005BB1102B09D0202B07D0402B05D0602B6E
:1021640003D0DA21144801F00BF823694BB1B3F51D
:10217400807F06D0B3F5007F03D0DB210E4800F04A
:10218400FFFF94F8393013F0FF0F05D1002384F8D2
:102194003830204601F094F8022384F83930211DA8
:1021A4002068FFF707FF012384F83930002010BDB1
:1021B4000120704700000140EC35000838B50446A2
:1021C4000D460368374A934227D0B3F1804F24D099
:1021D400A2F57C42934220D002F5806293421CD047
:1021E40002F58062934218D002F58062934214D0C3
:1021F40002F58062934210D002F5704293420CD0F3
:1022040002F57052934208D0A2F59432934204D05E
:102214004FF4CB61244800F0B3FF2B6893B1102B2B
:1022240010D0202B0ED0302B0CD0402B0AD0502BAA
:1022340008D0602B06D0702B04D040F259611A48A4
:1022440000F09EFF6B68802B05D023B140F25A61E9
:10225400154800F095FF94F83830012B1FD0012267
:1022640084F83820022384F8393021684B6823F03D
:1022740070034B60216848682B6803434B602168F6
:102284008B6823F080038B60216888686B68034344
:102294008B6084F83920002084F8380038BD02208F
:1022A40038BD00BF000001401C360008704700BF65
:1022B400704700BF00B589B0002201463620FEF702
:1022C40035FB3620FEF774FB00230193174B1A6C81
:1022D40042F010021A641B6C03F010030193019B7B
:1022E40002A903A8FEF72CFF069B13B9FEF7F8FE1C
:1022F40002E0FEF7F5FE40000D4BA3FB00239B0C10
:10230400013B0C480C4A026040F2E732C260436071
:10231400002303618360FFF7DBFE18B90548FFF76C
:1023240039FD00E0012009B05DF804FB00380240EB
:1023340083DE1B43200000200010004008B5FEF798
:1023440041F808BD08B50248FFF77AFD08BD00BF93
:10235400200000202DE9F84304464268B14B9A421C
:1023640004D940F24F71B04800F00AFFE3683BB172
:10237400B3F5005F04D04FF4EA61AB4800F000FF0E
:10238400236953B1B3F5806F07D0B3F5C06F04D0A0
:1023940040F25171A44800F0F3FE63694FF6F37202
:1023A400134200D123B940F252719F4800F0E8FE75
:1023B40021680B6923F44052E36813430B612068DE
:1023C400C36823F4164222F00C02A168236919435E
:1023D40063691943E3690B431343C36021684B6981
:1023E40023F44072A36913434B61E369B3F5004FCF
:1023F40040F0BB80276803F1804303F510439F42FC
:1024040003D003F580639F4257D1FEF781FE00EBB2
:10241400800000EB800065686D00B0FBF5F5834E2D
:10242400A6FB05356D092D01FEF772FE00EB800059
:1024340000EB800063685B00B0FBF3F9FEF768FE15
:1024440000EB800000EB800063685B00B0FBF3F3FB
:10245400A6FB03235B094FF0640808FB1393DB001E
:102464003233A6FB03235B095B0003F4F8731D44BA
:10247400FEF74EFE00EB800000EB800063685B001B
:10248400B0FBF3F9FEF744FE00EB800000EB8000A4
:1024940063685B00B0FBF3F3A6FB03235B0908FB53
:1024A40013984FEAC80808F13208A6FB0836C6F3A9
:1024B40042163544BD60BDE8F883FEF711FE00EB1B
:1024C400800000EB800065686D00B0FBF5F5574EA9
:1024D400A6FB05356D092D01FEF702FE00EB800019
:1024E40000EB800063685B00B0FBF3F9FEF7F8FDD6
:1024F40000EB800000EB800063685B00B0FBF3F34B
:10250400A6FB03235B094FF0640808FB1393DB006D
:102514003233A6FB03235B095B0003F4F8731D4409
:10252400FEF7DEFD00EB800000EB800063685B00DB
:10253400B0FBF3F9FEF7D4FD00EB800000EB800064
:1025440063685B00B0FBF3F3A6FB03235B0908FBA2
:1025540013984FEAC80808F13208A6FB0836C6F3F8
:1025640042163544BD60BDE8F8832668304B9E4270
:1025740003D003F580639E425CD1FEF7C9FD00EBF6
:10258400800000EB80006568AD00B0FBF5F5274FD7
:10259400A7FB05356D092D01FEF7BAFD00EB8000A0
:1025A40000EB800063689B00B0FBF3F8FEF7B0FD1E
:1025B40000EB800000EB800063689B00B0FBF3F34A
:1025C400A7FB03235B094FF0640909FB13831B0179
:1025D4003233A7FB03235B0903F0F0031D44FEF72A
:1025E40097FD00EB800000EB800063689B00B0FB6C
:1025F400F3F8FEF78DFD00EB800000EB80006368CC
:102604009B00B0FBF3F3A7FB03235B0909FB1383D4
:102614001B013233A7FB0323C3F343131D44B560EB
:10262400BDE8F883A037A000503600081F85EB51A1
:1026340000100140FEF754FD00EB800000EB800029
:102644006568AD00B0FBF5F5254FA7FB05356D09B1
:102654002D01FEF745FD00EB800000EB8000636870
:102664009B00B0FBF3F8FEF73BFD00EB800000EBB2
:10267400800063689B00B0FBF3F3A7FB03235B09B3
:102684004FF0640909FB13831B013233A7FB0323B7
:102694005B0903F0F0031D44FEF722FD00EB80000C
:1026A40000EB800063689B00B0FBF3F8FEF718FDB5
:1026B40000EB800000EB800063689B00B0FBF3F349
:1026C400A7FB03235B0909FB13831B013233A7FB1D
:1026D4000323C3F343131D44B560BDE8F88300BF6F
:1026E4001F85EB51002800F0868010B504468369ED
:1026F4001BB30368414A93420FD0A2F54C42934264
:102704000BD002F58062934207D002F54C4293420B
:1027140003D0FE213A4800F033FDA36953B3B3F567
:10272400807F27D0B3F5007F24D0B3F5407F21D03C
:10273400FF21334800F024FD1CE003682F4A934234
:1027440018D0A2F54C42934214D002F58062934211
:1027540010D002F5806293420CD002F5806293425D
:1027640008D002F54442934204D040F203112448B5
:1027740000F006FDA3683BB1B3F5805F04D040F2DE
:1027840005111F4800F0FCFCE3693BB1B3F5004FB1
:1027940004D04FF483711A4800F0F2FC94F83930F5
:1027A40013F0FF0F05D1002384F83830204600F0E1
:1027B400B1FD242384F839302268D36823F400530C
:1027C400D3602046FFF7C6FD2268136923F49043C3
:1027D40013612268536923F02A0353612268D36882
:1027E40043F40053D3600020E063202384F839309D
:1027F40084F83A3010BD0120704700BF001001403A
:1028040050360008FEE700BF01230360014B0B6054
:10281400704700BF0400002008B500F0D9FD024B4A
:10282400024A9A6008BD00BF00ED00E00000000805
:1028340038B505460C4600228988A068FEF7ACFA34
:102844004FF6FF73012229462068FFF793F801220F
:10285400A188A068FEF7A0FA012038BD10B582B0A7
:10286400144600238DF80630030A15D18DF80400B0
:102874008DF805100022A188A068FEF78DFA4FF6A6
:10288400FF73022201A92068FFF774F80122A188CE
:10289400A068FEF781FA17E02F238DF804308DF835
:1028A40005008DF806100022A188A068FEF774FACE
:1028B4004FF6FF73032201A92068FFF75BF801229A
:1028C400A188A068FEF768FA012002B010BD00BF1D
:1028D40010B582B00C463F238DF804308DF8050006
:1028E40000228988A068FEF757FA4FF6FF73022288
:1028F40001A92068FFF73EF80122A188A068FEF72D
:102904004BFA012002B010BD10B584B00446002279
:102914008DF808208DF809208DF80A20AF238DF852
:102924000C30D6238DF80D308DF80E208188806808
:10293400FEF732FA4FF6FF730093032302AA03A9AA
:102944002068FFF7FBF80122A188A068FEF724FAAB
:102954009DF80A0004B010BD10B504460246732168
:102964000020FFF77BFF224633210120FFF776FF8B
:10297400224607210320FFF771FF22460B2108207E
:10298400FFF76CFF22469A210A20FFF767FF2246D1
:1029940005210B20FFF762FF22461C210C20FFF7C4
:1029A4005DFF224646211020FFF758FF22460221F0
:1029B4001120FFF753FF224605211320FFF74EFF96
:1029C400224693211420FFF749FF22467421152043
:1029D400FFF744FF2246BC211620FFF73FFF2246A3
:1029E40020211720FFF73AFF224619211820FFF76C
:1029F40035FF2246A9211C20FFF730FF2246CF21B4
:102A04001D20FFF72BFF224612212120FFF726FF6E
:102A1400224620212820FFF721FF22464F212B2088
:102A2400FFF71CFF22467B212D20FFF717FF2246CC
:102A3400FF212E20FFF712FF224600214FF43C50C5
:102A4400FFF70CFF2246222142F60170FFF706FF32
:102A54002246722142F60C70FFF700FF2246C02185
:102A640042F60D70FFF7FAFE2246002142F612707C
:102A7400FFF7F4FE22465F2142F61370FFF7EEFEE5
:102A840022460E2142F61770FFF7E8FE2246032184
:102A940042F61970FFF7E2FE2246332142F61B701C
:102AA400FFF7DCFE2246172142F61D70FFF7D6FE23
:102AB4002246502142F61F70FFF7D0FE22466E21B7
:102AC40042F62070FFF7CAFE2246142142F6217016
:102AD400FFF7C4FE2246AC2142F62270FFF7BEFE89
:102AE40022460E2142F63270FFF7B8FE2246C72175
:102AF40042F63470FFF7B2FE2246072142F63670E2
:102B0400FFF7ACFE10BD00BF30B585B0054600220E
:102B14008DF80D208DF80E208DF808208DF80920F1
:102B24008DF80A208F238DF80C30274C0221204683
:102B3400FEF732F94FF6FF730093022302AA03A9AA
:102B44002868FEF7FBFF012202212046FEF724F944
:102B54009DF80930D42B31D10022A988A868FEF74A
:102B64001BF94FF6FF730093022302AA03A92868F6
:102B7400FEF7E4FF0122A988A868FEF70DF99DF885
:102B84000930492B1CD120238DF80C3057238DF8A4
:102B94000D300022A988A868FEF7FEF84FF6FF73EF
:102BA4000093022302AA03A92868FEF7C7FF0122A3
:102BB400A988A868FEF7F0F8012002E0022000E0EE
:102BC400032005B030BD00BF0000024008B5FDF78A
:102BD400DFFB00F0B5F900F01BFC08BD2DE9F04364
:102BE4008BB000240194374B1A6B42F004021A6331
:102BF4001A6B02F004020192019A02941A6B42F0D9
:102C040080021A631A6B02F080020292029A039401
:102C14001A6B42F001021A631A6B02F0010203926A
:102C2400039A04941A6B42F002021A631B6B03F0BA
:102C340002030493049BDFF8989022464CF2C801E7
:102C44004846FEF7A9F8DFF88C8022460321404667
:102C5400FEF7A2F81C4F22460F213846FEF79CF8D7
:102C64001A4E224641F207013046FEF795F84CF21F
:102C7400C8030593012506950794089405A94846B9
:102C8400FDF7E4FE0323059306950794089405A92C
:102C94004046FDF7DBFE0F23059306950794089441
:102CA40005A93846FDF7D2FE41F2070305930695C0
:102CB4000794089405A93046FDF7C8FE0BB0BDE89B
:102CC400F08300BF003802400000024000040240CC
:102CD40000080240001C024008B50248FFF7B0F8A3
:102CE40008BD00BF30020020FEE700BF00B585B07C
:102CF4002448254B03604FF48033436000238360F2
:102D0400036183610362C362204A8262C360032257
:102D1400C261036301234361FDF71AFC20B14FF440
:102D240093711B48FFF7E0FF0C23009301230193E9
:102D34000023029369461348FDF7F4FC20B14FF4D5
:102D440098711348FFF7D0FF04A90A2341F8103DF6
:102D54000C48FDF7E7FC20B14FF49C710C48FFF7D9
:102D6400C3FF0B2300930223019369460548FDF733
:102D7400D9FC20B140F241110548FFF7B5FF05B079
:102D84005DF804FB14010020002001400100000F45
:102D94008036000808B50F480F4B03604FF4827368
:102DA400436000238360C360036143614FF4007296
:102DB40082613022C2610362436283620A23C36276
:102DC400FEF714FD20B140F259110448FFF78CFFBF
:102DD40008BD00BFD8010020003001408036000843
:102DE40008B50E480E4B03604FF482734360002312
:102DF4008360C360036143614FF400728261C36105
:102E04000362436283620A23C362FEF7EFFC20B1CC
:102E140040F271110348FFF767FF08BD5C00002012
:102E2400003800408036000800B583B00F48104BCE
:102E34000360002343608360C360FFF749F920B156
:102E44004FF4C1710B48FFF74FFF00230093019328
:102E540069460648FFF7B2F920B140F289110548E6
:102E6400FFF742FF03B05DF804FB00BF9C010020A4
:102E7400001000408036000800B583B00F48104BA6
:102E84000360002343608360C360FFF721F920B12E
:102E94004FF4CD710B48FFF727FF002300930193F4
:102EA40069460648FFF78AF920B140F2A1110548A6
:102EB400FFF71AFF03B05DF804FB00BF30020020E7
:102EC400001400408036000808B50B480B4B036023
:102ED4004FF4E133436000238360C36003610C2239
:102EE40042618361C361FFF7FDFB20B14FF4DA71E6
:102EF4000348FFF7F9FE08BD5C0100200010014003
:102F04008036000808B50B480B4B03604FF4E133DF
:102F1400436000238360C36003610C2242618361C8
:102F2400C361FFF7DFFB20B140F2C7110348FFF78D
:102F3400DBFE08BDB40000200048004080360008D5
:102F440000B595B0002200922B4B196C41F08051D2
:102F540019641B6C03F080530093009B0192274B70
:102F6400196841F4404119601B6803F4404301931C
:102F7400019B0223079301210A9110210B910D93C8
:102F84000E9208220F92B42210921193129313936B
:102F940007A8FEF7F3F8FDF719FF18B1F321184855
:102FA400FFF7A2FE0F23029302230393002304934B
:102FB4004FF4A05305934FF480530693052102A8C0
:102FC400FDF756FF20B140F201110D48FFF78CFECA
:102FD400FEF780F80B4BA3FB00308009FDF7FEFCE5
:102FE4000420FDF711FD002211464FF0FF30FDF7DC
:102FF4009DFC15B05DF804FB0038024000700040F1
:1030040080360008D34D62102DE9F0418AB00025C6
:103014008DF82750FDF7BCF9FFF792FFFFF7DEFDAF
:10302400FFF764FEFFF7B6FEFFF7DAFEFFF7FCFEDC
:10303400FFF722FFFFF748FFFFF764FF4A4E0796AA
:103044000124ADF81840494B0593494F04974FF0BC
:103054000208ADF80C800293224608214548FDF78A
:103064009BFE224621463846FDF796FE22464146FF
:103074003846FDF791FE224608213846FDF78CFEBE
:10308400224621463046FDF787FE2246042130467B
:10309400FDF782FE2A4641463046FDF77DFE009547
:1030A400354C236C43F020032364236C03F020038A
:1030B4000093009B2A4629463720FDF737FC37202A
:1030C400FDF776FC2D4D2846FFF702F82846FEF75B
:1030D40061FE236C23F02003236430238DF8073032
:1030E40005A90DF10700FFF7A3FB6420FDF778F9AC
:1030F40005A90DF10700FFF79BFB6420FDF770F9AC
:1031040005A8FFF701FC8DF8270002A8FFF7FCFCD7
:1031140005A8FFF721FC35238DF8063005A8FFF735
:10312400F3FB8DF8270005A90320FFF7D1FB05A9C0
:103134000320FFF7CDFB05A90520FFF7C9FB05A96F
:103144000620FFF7C5FB05A90DF10600FFF770FB8C
:103154003220FDF745F905A8FFF7D6FB8DF82700C7
:10316400FA20FDF73DF9D9E700040240D801002018
:1031740000000240000802400038024030020020F3
:10318400704700BF08B50720FDF7B2FB00221146C7
:103194006FF00B00FDF7CAFB002211466FF00A0026
:1031A400FDF7C4FB002211466FF00900FDF7BEFBDA
:1031B400002211466FF00400FDF7B8FB002211460F
:1031C4006FF00300FDF7B2FB002211466FF001001F
:1031D400FDF7ACFB002211464FF0FF30FDF7A6FBD4
:1031E40008BD00BF02680F4B9A421AD100B587B0E0
:1031F4000021009103F58C335A6C42F480725A64B6
:103204005B6C03F480730093009B072301930323F7
:103214000293039101A90448FDF718FC07B05DF877
:1032240004FB7047002001400008024000B589B04B
:1032340003681E4A934219D1002101911C4B5A6C18
:1032440042F480525A645B6C03F480530193019BF3
:10325400E023039302230493059103230693052398
:10326400079303A91348FDF7F1FB1CE0124A9342AC
:1032740019D1002102910E4B1A6C42F480421A6457
:103284001B6C03F480430293029B4FF4604303934B
:10329400022304930591032306930523079303A9AB
:1032A4000648FDF7D3FB09B05DF804FB003001408C
:1032B4000038024000000240003800400004024090
:1032C40082B00368104A93420CD1002300930F4B41
:1032D4001A6C42F010021A641B6C03F01003009382
:1032E400009B0EE00A4A93420BD100230193074B43
:1032F4001A6C42F020021A641B6C03F02003019341
:10330400019B02B0704700BF00100040003802402B
:1033140000140040F0B589B00368244A93421BD1DD
:1033240000230193224B5A6C42F010025A645B6CE6
:1033340003F010030193019B4FF4C0630393022332
:10334400049301230593032306930723079303A9F7
:103354001848FDF77BFB27E0174A934224D100234A
:103364000293134B1A6C42F480221A641B6C03F40C
:1033740080230293029B20230393022704970126B0
:103384000596032506950724079403A90B48FDF722
:103394005DFB4FF4806303930497059606950794A9
:1033A40003A90748FDF752FB09B0F0BD0010014026
:1033B400003802400000024000480040000802407B
:1033C4000004024008B5FCF7FDFFFDF73BFB08BD18
:1033D4000C4B1A6842F001021A60002199601A68C5
:1033E40022F0847222F480321A60074A5A601A6802
:1033F40022F480221A60D9604FF00062034B9A6075
:10340400704700BF003802401030002400ED00E097
:10341400224B9B6803F00C03042B07D0082B09D024
:10342400002B2DD11E4A1F4B1A602CE01E4A1D4B47
:103434001A6028E0194B5A685B6803F03F0312F4E2
:10344400800F09D0184AB2FBF3F2144B5B68C3F344
:10345400881303FB02F208E0114AB2FBF3F30F4AAC
:103464005168C1F3881101FB03F20C4B5B68C3F391
:10347400014301335B00B2FBF3F30A4A136002E039
:10348400074A084B1A60054B9B68C3F30313074AAA
:10349400D15C044A1368CB40136070470038024083
:1034A4000024F4000C00002000127A00903600087A
:1034B4002E2E2F73797374656D2F7372632F73744B
:1034C4006D333266342D68616C2F73746D333266DC
:1034D4003478785F68616C5F6164632E6300000018
:1034E4002E2E2F73797374656D2F7372632F73741B
:1034F4006D333266342D68616C2F73746D333266AC
:103504003478785F68616C5F636F727465782E637A
:10351400000000002E2E2F73797374656D2F737263
:10352400632F73746D333266342D68616C2F73743A
:103534006D3332663478785F68616C5F6770696F89
:103544002E630000000000000102030401020304D2
:10355400060708092E2E2F73797374656D2F737205
:10356400632F73746D333266342D68616C2F7374FA
:103574006D3332663478785F68616C5F7263632E92
:10358400630000002E2E2F73797374656D2F737290
:10359400632F73746D333266342D68616C2F7374CA
:1035A4006D3332663478785F68616C5F7263635F31
:1035B40065782E63000000002E2E2F7379737465D6
:1035C4006D2F7372632F73746D333266342D68619B
:1035D4006C2F73746D3332663478785F68616C5F16
:1035E4007370692E630000002E2E2F737973746537
:1035F4006D2F7372632F73746D333266342D68616B
:103604006C2F73746D3332663478785F68616C5FE5
:1036140074696D2E630000002E2E2F737973746508
:103624006D2F7372632F73746D333266342D68613A
:103634006C2F73746D3332663478785F68616C5FB5
:1036440074696D5F65782E63000000002E2E2F7361
:10365400797374656D2F7372632F73746D3332666F
:10366400342D68616C2F73746D3332663478785FEF
:1036740068616C5F756172742E6300002E2E2F7367
:1036840072632F6D61696E2E6300000000000000FC
:0C36940000000000010203040607080902
:1036A0007856341218000020000000000024F400B6
:0436B0003254769882
:04000005080001C529
:00000001FF
